:0600000000F097EF04F090
:1001000000040004001500110011000E0000001B87
:10011000001B000A000E000E0011001F000E00045C
:10012000000A000A000E000E000E0000000F000F73
:100130000001000F000F0000000E000E0006000A74
:10014000000C000E000E000E000E000E000E000E41
:10015000000E0011001F001E001D001B0017000FE5
:10016000001F00000000000A000E00040000000054
:10017000002020202020202020202020202020209F
:1001800020003132563D2F2035563D2F2033563337
:100190003D2F002D3132563D2F2020202020204D94
:1001A000454E5500202020205354414E44425920B2
:1001B000202020003A200000000E6E6E000E6D6EB2
:1001C00020EED1F010EE6FF00A0EDBCFE3FFE80671
:1001D000FCE2000E6C6E000E6B6E6CBE08D06C50B4
:1001E00048E1080E6B5CD8B044D001D042D0000E7C
:1001F0006A6E000E696E6ABE08D06A5036E1070E5C
:10020000695CD8B032D001D030D06B38E842F80BFE
:1002100069104009DFEC04F069C05DF06AC05EF06F
:10022000D8905D365E366BC001F06CC002F0000EF7
:10023000046E0E0E036EAEEC04F0010E5F6E010E46
:10024000606E01505F26025060225D505F265E5056
:1002500060225FC0F6FF60C0F7FF0800F550D1ECE8
:1002600004F0694A6A2AC7D700D06B4A6C2AB5D70E
:1002700000D0000EC2EC04F0820E066E010E076E76
:100280006DEC04F0400EC2EC04F0930E066E010E0D
:10029000076E6DEC04F000D080A847D0200E5D6E94
:1002A0002A0EE82EFED75D2EFCD780A83ED07450D3
:1002B000010D6F0EF324D96E000EF420DA6EDF50BC
:1002C000C2EC04F0040E7418D8A407D09F0E066E7A
:1002D000010E076E6DEC04F01CD07450010D060E7B
:1002E000F326000EF4226F0EF324D96E000EF420D4
:1002F000DA6EDF50D8A404D0000E626E2F0E03D049
:10030000000E626E000E616E00D06150D1EC04F000
:1003100000D0742A050E7418D8A403D0000E746E91
:1003200000D080A802D0FDD700D080A247D0200EF8
:100330005D6E2A0EE82EFED75D2EFCD780A23ED041
:100340007450010D6F0EF324D96E000EF420DA6E96
:10035000DF50C2EC04F0040E7418D8A407D09F0E2E
:10036000066E010E076E6DEC04F01CD07450010D8A
:10037000060EF326000EF4226F0EF324D96E000E43
:10038000F420DA6EDF50D8A404D0000E646E2F0E75
:1003900003D0000E646E000E636E00D06350D1EC8B
:1003A00004F000D07450D8A403D0050E746E00D0B1
:1003B000740600D080A202D0FDD700D080A0CAD0A1
:1003C000200E5D6E2A0EE82EFED75D2EFCD780A093
:1003D000C1D0040E7418D8A415D00AEC03F0000E96
:1003E000C2EC04F0820E066E010E076E6DEC04F096
:1003F000400EC2EC04F0930E066E010E076E6DEC1B
:1004000004F0A4D07450010D060EF326000EF42261
:100410006F0EF324D96E000EF420DA6E7450010DC5
:10042000060EF326000EF4226F0EF324E16E000E8A
:10043000F420E26EE750FF0ADF6E7450010D6F0E7C
:10044000F324D96E000EF420DA6EDF50C2EC04F013
:100450007450010D060EF326000EF4226F0EF324E5
:10046000D96E000EF420DA6EDF50D8A404D0000E4E
:10047000666E2F0E03D0000E666E000E656E00D005
:100480006550D1EC04F054D07450010D060EF326E3
:10049000000EF4226F0EF324D96E000EF420DA6EF3
:1004A000DF50FF0A5D6E5D468A505D18FD0B3DD042
:1004B0007450010D060EF326000EF4226F0EF32485
:1004C000D96E000EF420DA6EDF50FF0A5D6E5D32E9
:1004D0005D328A505D187F0B28D07450010D060ED6
:1004E000F326000EF4226F0EF324D96E000EF420D2
:1004F000DA6EDF50FF0A5D6E5D3A5D465D468A50FA
:100500005D18BF0B12D07450010D060EF326000EBD
:10051000F4226F0EF324D96E000EF420DA6EDF5051
:10052000FF0A5D6E8A505D18FE0B5D188A6E0ED054
:100530007450000AD8B4A8D7010AD8B4B9D7030AAE
:10054000D8B4CBD7010AD8B4DED700D080A002D06F
:10055000FDD700D0F2A4A0D67450010D6F0EF32485
:10056000D96E000EF420DA6EDF50C2EC04F0040EF7
:100570007418D8A418D06D506E10D8B407D09F0E40
:10058000066E010E076E6DEC04F037D0020ED1EC52
:1005900004F0030ED1EC04F0040ED1EC04F0050ECF
:1005A000D1EC04F02AD07450010D060EF326000E93
:1005B000F4226F0EF324D96E000EF420DA6EDF50B1
:1005C000D8B40AD06D506E10D8A402D0010E01D05C
:1005D000000ED1EC04F011D06D506E10D8A404D0F0
:1005E000000E686E060E03D0000E686E2F0E676E4A
:1005F00000D06750D1EC04F000D06D506E10D8A43C
:1006000002D0010E01D0000E6D6E6E6AF29444D6D7
:10061000FFD71200000E0B6E010E0A6E20EE80F066
:1006200010EE0CF0500EDBCFE3FFE806FCE2010E0B
:10063000DFEC04F0060E086E300EE82EFED7082E12
:10064000FCD700D000D00A500B10D8B462D0000EF6
:10065000C2EC04F00C50310FD1EC04F0B40E066E75
:10066000010E076E6DEC04F00C50100D010EF32618
:10067000000EF4220C0EF324066E000EF420076E1A
:100680006DEC04F0740E066E010E076E6DEC04F056
:100690000F0EC2EC04F07F0ED1EC04F0400EC2EC61
:1006A00004F0040E0C6029D00C50320FD1EC04F091
:1006B000B40E066E010E076E6DEC04F00C50086E61
:1006C000096A083A093AF00E091608500F0B091288
:1006D000F00E0816110E0826000E09220C0E082432
:1006E000066E000E0920076E6DEC04F0740E066EA7
:1006F000010E076E6DEC04F007D0710E066E010E50
:10070000076E6DEC04F000D0000E0B6E000E0A6E4A
:1007100000D080A81BD0200E086E2A0EE82EFED72F
:10072000082EFCD780A812D0040E0C18D8A403D031
:10073000000E0C6E02D00C2A00D0000E0B6E010EC3
:100740000A6E00D080A802D0FDD700D080A21AD0B7
:10075000200E086E2A0EE82EFED7082EFCD780A2A7
:1007600011D00C50D8A403D0040E0C6E02D00C068D
:1007700000D0000E0B6E010E0A6E00D080A202D0D7
:10078000FDD700D080A05FD7200E086E2A0EE82E7D
:10079000FED7082EFCD780B008D055D706D000D0A1
:1007A00080A00CD0FDD70AD005D00C50040AD8B4D4
:1007B000F7D700D080A047D7FDD745D71200D38800
:1007C000D38AD38C130E926E000E896EC168000E10
:1007D000936E000E8A6E89848A828A808A8E8A8CC1
:1007E000D09E000ED66E000ED76E930ED56EF2948C
:1007F0003C0EDFEC04F0060EDFEC04F00C0EDFEC38
:1008000004F0010EDFEC04F0060E7A6E300EE82ED6
:10081000FED77A2EFCD700D0DCEC00F001EF00F020
:10082000026E000E046E000E036E04BE08D004506B
:1008300021E1080E035CD8B01DD001D01BD002A06E
:1008400003D0016A012A01D0016A013A014601463A
:1008500089500118BF0B0118896E00F08A8400F0DE
:100860008A94D8900232034A042A04BEE8D704507E
:1008700001E1DFD700F0898E00F0899E120000535D
:1008800074616E6462790000000000000000005096
:1008900061697200000000000000000000000050CC
:1008A00061697220416C6C00000000000000005083
:1008B000616972204E6F6E6500000000000000420A
:1008C00061636B00000000000000000000000004F5
:1008D000090F454C00000000000015D006C0F6FFCF
:1008E00007C0F7FFF86A000EF76403D00800F55060
:1008F00005D0F6CFE9FFF7CFEAFFEF50D1EC04F0D7
:10090000064A072A00D006C0F6FF07C0F7FFF86ABC
:10091000000EF76403D00800F55005D0F6CFE9FFCC
:10092000F7CFEAFFEF500009D8A4D8D712007C6AAD
:100930007B6A7E0EF66E080EF76E000EF86E00EE05
:1009400080F010EE5CF00900F5CFEEFFE550E150CD
:10095000FAE1000EF86E0001DFEF03F00150030230
:10096000F3CF05F0F4CF06F001500402F350062651
:1009700002500302F350062605C001F006C002F043
:1009800000D01200056E8A988A9A0550800910ECF2
:1009900004F08A8600D08A96180EE82EFED700D082
:1009A0001200056E8A888A9A055010EC04F08A8637
:1009B00000D08A96180EE82EFED700D01200056EE1
:1009C0008A988A9A055010EC04F08A8600D08A969C
:0A09D000180EE82EFED700D012002A
:020000040020DA
:08000000FFFFFFFFFFFFFFFF00
:020000040030CA
:0E000000FF080C1EFF8081FF03C003E00340D9
:00000001FF
