:0600000000F016EF06F00F
:1001000000040004001500110011000E0000001B87
:10011000001B000A000E000E0011001F000E00045C
:10012000000A000A000E000E000E0000000F000F73
:100130000001000F000F0000000E000E0006000A74
:10014000000C000E000E000E000E000E000E000E41
:10015000000E0011001F001E001D001B0017000FE5
:10016000001F001F00130013001F00130013001FC7
:1001700000494E444956204F6E2F4F66660020209E
:10018000202020202020202020202020202000416E
:100190006C6C20566F6C74616765733A2F20200079
:1001A0003132563D2F2035563D2F203356333D2FCB
:1001B000002020202020202020202020204D454EDF
:1001C00055002D3132563D2F2020202020204D4536
:1001D0004E5500202020205354414E4442592020A7
:1001E000202000416C6C20566F6C74616765733A17
:1001F000003A20000000000E666E000E656E20EED4
:10020000A8F010EE67F00B0EDBCFE3FFE806FCE290
:10021000000E646E000E636E64BE08D0645048E148
:10022000080E635CD8B044D001D042D0000E626E9C
:10023000000E616E62BE08D0625036E1070E615C4E
:10024000D8B032D001D030D06338E842F80B61101A
:1002500040095DEC06F061C054F062C055F0D890E2
:100260005436553663C001F064C002F0000E046ECF
:100270000E0E036E2CEC06F0010E566E010E576E3C
:100280000150562602505722545056265550572298
:1002900056C0F6FF57C0F7FF0800F5504FEC06F0C8
:1002A000614A622AC7D700D0634A642AB5D700D012
:1002B000000E40EC06F0A00E076E010E086EA9ECD1
:1002C00005F0400E40EC06F0C20E076E010E086EFF
:1002D000A9EC05F000D080A847D0200E546E2A0E5D
:1002E000E82EFED7542EFCD780A83ED06C50010DCE
:1002F000670EF324D96E000EF420DA6EDF5040EC66
:1003000006F0040E6C18D8A407D0BD0E076E010EBF
:10031000086EA9EC05F01CD06C50010D060EF326FA
:10032000000EF422670EF324D96E000EF420DA6E6C
:10033000DF50D8A404D0000E596E2F0E03D0000E4B
:10034000596E000E586E00D058504FEC06F000D099
:100350006C2A050E6C18D8A403D0000E6C6E00D069
:1003600080A802D0FDD700D080A247D0200E546EC6
:100370002A0EE82EFED7542EFCD780A23ED06C5019
:10038000010D670EF324D96E000EF420DA6EDF50F3
:1003900040EC06F0040E6C18D8A407D0BD0E076E12
:1003A000010E086EA9EC05F01CD06C50010D060E74
:1003B000F326000EF422670EF324D96E000EF4200B
:1003C000DA6EDF50D8A404D0000E5B6E2F0E03D07F
:1003D000000E5B6E000E5A6E00D05A504FEC06F0C5
:1003E00000D06C50D8A403D0050E6C6E00D06C0603
:1003F00000D080A202D0FDD700D080A0C9D0200EAE
:10040000546E2A0EE82EFED7542EFCD780A0C0D002
:10041000040E6C18D8B402D013D000D080B0FED730
:100420008A828A808A8E8A8C000E28EC03F0606EA5
:10043000020E6018D8A40BD144EC04F008D1A4D06B
:100440006C50010D060EF326000EF422670EF32405
:10045000D96E000EF420DA6E6C50010D060EF326F4
:10046000000EF422670EF324E16E000EF420E26E1B
:10047000E750FF0ADF6E6C50010D670EF324D96E52
:10048000000EF420DA6EDF5040EC06F06C50010DE7
:10049000060EF326000EF422670EF324D96E000E2A
:1004A000F420DA6EDF50D8A404D0000E5D6E2F0E5B
:1004B00003D0000E5D6E000E5C6E00D05C504FEC01
:1004C00006F054D06C50010D060EF326000EF422F7
:1004D000670EF324D96E000EF420DA6EDF50FF0AA7
:1004E000546E54468A505418FD0B3DD06C50010D8B
:1004F000060EF326000EF422670EF324D96E000ECA
:10050000F420DA6EDF50FF0A546E543254328A50AF
:1005100054187F0B28D06C50010D060EF326000EE8
:10052000F422670EF324D96E000EF420DA6EDF5049
:10053000FF0A546E543A544654468A505418BF0B1E
:1005400012D06C50010D060EF326000EF422670E39
:10055000F324D96E000EF420DA6EDF50FF0A546ED9
:100560008A505418FE0B54188A6E0ED06C50000A34
:10057000D8B4A8D7010AD8B4B9D7030AD8B4CBD70E
:10058000010AD8B4DED700D080A002D0FDD700D0B9
:10059000F2A4A1D66C50010D670EF324D96E000EA3
:1005A000F420DA6EDF5040EC06F0040E6C18D8A48C
:1005B00018D065506610D8B407D0BD0E076E010E76
:1005C000086EA9EC05F037D0020E4FEC06F0030ED2
:1005D0004FEC06F0040E4FEC06F0050E4FEC06F063
:1005E0002AD06C50010D060EF326000EF422670E81
:1005F000F324D96E000EF420DA6EDF50D8B40AD09E
:1006000065506610D8A402D0010E01D0000E4FEC48
:1006100006F011D065506610D8A404D0000E5F6EAD
:10062000060E03D0000E5F6E2F0E5E6E00D05E5081
:100630004FEC06F000D065506610D8A402D0010E31
:1006400001D0000E656E666AF29445D6FFD712009F
:100650001B6E000E1A6E010E196E710EF66E010EF3
:10066000F76E20EE0CF00C0E0900F5CFDEFFE80669
:10067000FBE220EE80F010EE1EF0270EDBCFE3FF52
:10068000E806FCE21B50D8B426D0000E1D6E000E0A
:100690001C6E1DBE08D01D501EE10C0E1C5CD8B097
:1006A0001AD001D018D00C0E1C24D96E000E1D20BB
:1006B000DA6E0E0E1C240A6E000E1D200B6E1E0E2E
:1006C0000A24E16E000E0B20E26EDFCFE7FF1C4A2A
:1006D0001D2ADFD700D0010E5DEC06F0060E0A6E73
:1006E000300EE82EFED70A2EFCD700D000D01950CD
:1006F0001A10D8B462D0000E40EC06F01E50310F34
:100700004FEC06F0F10E076E010E086EA9EC05F035
:100710001E500D0D010EF326000EF4221E0EF324C2
:10072000076E000EF420086EA9EC05F0860E076E29
:10073000010E086EA9EC05F00F0E40EC06F07F0EDE
:100740004FEC06F0400E40EC06F0020E1E6029D081
:100750001E50320F4FEC06F0F10E076E010E086EC0
:10076000A9EC05F0010E1E24016E026A000E0222A1
:10077000000E046E0D0E036E2CEC06F0010E012629
:10078000000E02221E0E0124076E000E0220086ECB
:10079000A9EC05F0860E076E010E086EA9EC05F0B7
:1007A00007D07E0E076E010E086EA9EC05F000D092
:1007B000000E1A6E000E196E00D080A81BD0200EFD
:1007C0000A6E2A0EE82EFED70A2EFCD780A812D079
:1007D000020E1E18D8A403D0000E1E6E02D01E2AD0
:1007E00000D0000E1A6E010E196E00D080A802D043
:1007F000FDD700D080A21AD0200E0A6E2A0EE82E55
:10080000FED70A2EFCD780A211D01E50D8A403D048
:10081000020E1E6E02D01E0600D0000E1A6E010ED1
:10082000196E00D080A202D0FDD700D080A05FD783
:10083000200E0A6E2A0EE82EFED70A2EFCD780B0B4
:1008400002D055D700D080A012D0FDD710D0D3EC65
:1008500005F017D018D01B04D8A403D0030E13D072
:1008600010D0020E10D00DD00CD00DD040D71E509D
:10087000000AD8B4ECD7010AD8B4EDD7030AD8A43B
:1008800036D7000E00D012007494749074928A8E41
:100890008A828A8C8A80000E40EC06F08F0E076EEA
:1008A000010E086EA9EC05F0400E40EC06F0B10E0A
:1008B000076E010E086EA9EC05F000D0F2A441D03D
:1008C00074A019D04C0E40EC06F074A20DD0020EAC
:1008D0004FEC06F0030E4FEC06F0040E4FEC06F062
:1008E000050E4FEC06F02AD0BD0E076E010E086E05
:1008F000A9EC05F023D00D0E40EC06F074A20FD049
:1009000074B404D0000E486E060E03D0000E486E7C
:10091000010E476E00D047504FEC06F00FD074B474
:1009200004D0000E4A6E2F0E03D0000E4A6E000E49
:10093000496E00D049504FEC06F000D07472F2942A
:1009400000D080B802D080A22ED0200E466E2A0E93
:10095000E82EFED7462EFCD780B802D080A220D049
:1009600074A00AD04C0E40EC06F0BD0E076E010ECE
:10097000086EA9EC05F012D00D0E40EC06F074B430
:1009800004D0000E4C6E2F0E03D0000E4C6E000EE5
:100990004B6E00D04B504FEC06F000D0747000D07E
:1009A00080A880B2FDD780A089D7200E466E2A0E7F
:1009B000E82EFED7462EFCD780A080D70D0E40EC47
:1009C00006F074B002D037D000D080B0FED7010E50
:1009D00028EC03F0536E030E5318D8A405D08A8E6A
:1009E0008A828A8C8A8050D0000E40EC06F0E30E9A
:1009F000076E010E086EA9EC05F074B404D0000E69
:100A00004E6E2F0E03D0000E4E6E000E4D6E00D0B7
:100A10004D504FEC06F08C0E076E010E086EA9ECDF
:100A200005F0400E40EC06F0B10E076E010E086EA8
:100A3000A9EC05F025D08A7E8A728A7C8A7074744B
:100A400074A20FD074B404D0000E506E060E03D002
:100A5000000E506E010E4F6E00D04F504FEC06F05E
:100A60000FD074B404D0000E526E2F0E03D0000EBF
:100A7000526E000E516E00D051504FEC06F000D077
:100A800080A01CD7FDD71AD71200D388D38AD38C65
:100A9000130E926E000E896EC168000E936E000EEA
:100AA0008A6E89848A828A808A8E8A8CD09E000E81
:100AB000D66E000ED76E930ED56EF2943C0E5DECA2
:100AC00006F0060E5DEC06F00C0E5DEC06F0010E75
:100AD0005DEC06F0060E736E300EE82EFED7732E18
:100AE000FCD700D0D3EC05F000D0FBEC00F0FDD734
:100AF00001EF00F0026E000E046E000E036E04BEE5
:100B000008D0045021E1080E035CD8B01DD001D0FC
:100B10001BD002A003D0016A012A01D0016A013A68
:100B20000146014689500118BF0B0118896E00F07B
:100B30008A8400F08A94D8900232034A042A04BEC0
:100B4000E8D7045001E1DFD700F0898E00F0899EDC
:100B5000120015D007C0F6FF08C0F7FFF86A000EB4
:100B6000F76403D00800F55005D0F6CFE9FFF7CFC2
:100B7000EAFFEF504FEC06F0074A082A00D007C002
:100B8000F6FF08C0F7FFF86A000EF76403D008000C
:100B9000F55005D0F6CFE9FFF7CFEAFFEF50000997
:100BA000D8A4D8D712008984010E5DEC06F0060E99
:100BB000096E300EE82EFED7092EFCD700D0D30EDA
:100BC000076E010E086EA9EC05F000D080A080B27F
:100BD00002D080A8FBD7200E096E2A0EE82EFED781
:100BE000092EFCD700D080A080B2FDD780B8FBD7FB
:100BF000899401D0EBD71200005374616E6462795E
:100C0000000000000000416C6C204F6E2F4F6666A4
:100C10000000004261636B00000000000000000063
:100C200004090F454C00000000000005746AF80E2E
:100C3000F66E0B0EF76E000EF86E00EE80F010EE02
:100C400034F00900F5CFEEFFE550E150FAE1000E77
:100C5000F86E000145EF05F001500302F3CF05F0F7
:100C6000F4CF06F001500402F350062602500302AE
:100C7000F350062605C001F006C002F000D01200B5
:100C8000056E8A988A9A055080097AEC05F08A8662
:100C900000D08A96180EE82EFED700D01200056EFE
:100CA0008A888A9A05507AEC05F08A8600D08A965E
:100CB000180EE82EFED700D01200056E8A988A9A88
:100CC00005507AEC05F08A8600D08A96180EE82E38
:060CD000FED700D0120067
:020000040020DA
:08000000FFFFFFFFFFFFFFFF00
:020000040030CA
:0E000000FF080C1EFF8081FF03C003E00340D9
:00000001FF
