:0600000000F0B8EF07F06C
:100F70000001BBEF07F0D388D38AD38C130E926E97
:100F8000000E896EC168000E936E000E8A6E00D04E
:100F900080A010D0150E016EC60EE82EFED7012ED1
:100FA000FCD700D080A006D08A7E00D080A002D0DE
:100FB000FDD700D080A210D0150E016EC60EE82E0F
:100FC000FED7012EFCD700D080A206D08A7C00D0AC
:100FD00080A202D0FDD700D080A8DAD7150E016E0E
:100FE000C60EE82EFED7012EFCD700D080A8D0D7A1
:100FF0008A7200D080A8CCD7FDD7CAD701EF00F005
:020000040020DA
:08000000FFFFFFFFFFFFFFFF00
:020000040030CA
:0E000000FF080C1EFF8081FF03C003E00340D9
:00000001FF
