:0600000000F048EF03F0E0
:10010000003132563D2F2035563D2F203356333D9A
:100110002F002D3132563D2F2020202020204D450C
:100120004E550000000E176E000E166E20EE24F0E5
:1001300010EE18F00A0EDBCFE3FFE806FCE2000E3B
:10014000156E000E146E15BE08D0155041E1080E54
:10015000145CD8B03DD001D03BD0000E136E000E21
:10016000126E13BE08D013502FE1070E125CD8B0E8
:100170002BD001D029D01438E842F80B12104009D6
:10018000B6EC03F014C001F015C002F0000E046ECE
:100190000E0E036E85EC03F0800E086E000E096EE5
:1001A0000150082602500922D8901234D96E133417
:1001B000DA6E0850D9260950DA22DF50A8EC03F095
:1001C000124A132ACED700D0144A152ABCD700D021
:1001D000000E99EC03F0010E066E010E076E6FEC37
:1001E00003F0400E99EC03F0120E066E010E076E3E
:1001F0006FEC03F000D080A847D0200E086E2A0EC6
:10020000E82EFED7082EFCD780A83ED01D50010D49
:10021000180EF324D96E000EF420DA6EDF5099EC3C
:1002200003F0040E1D18D8A407D01E0E066E010E92
:10023000076E6FEC03F01CD01D50010D060EF32667
:10024000000EF422180EF324D96E000EF420DA6E9C
:10025000DF50D8A404D0000E0B6E2F0E03D0000E7A
:100260000B6E000E0A6E00D00A50A8EC03F000D00E
:100270001D2A050E1D18D8A403D0000E1D6E00D037
:1002800080A802D0FDD700D080A247D0200E086EF3
:100290002A0EE82EFED7082EFCD780A23ED01D5095
:1002A000010D180EF324D96E000EF420DA6EDF5023
:1002B00099EC03F0040E1D18D8A407D01E0E066E8C
:1002C000010E076E6FEC03F01CD01D50010D060EE1
:1002D000F326000EF422180EF324D96E000EF4203B
:1002E000DA6EDF50D8A404D0000E0D6E2F0E03D0AE
:1002F000000E0D6E000E0C6E00D00C50A8EC03F03A
:1003000000D01D50D8A403D0050E1D6E00D01D06D0
:1003100000D080A202D0FDD700D080A0C2D0200E95
:10032000086E2A0EE82EFED7082EFCD780A0B9D082
:100330001D50010D180EF324D96E000EF420DA6E54
:10034000DF5099EC03F0040E1D18D8B4A6D001D0EC
:10035000A4D01D50010D060EF326000EF422180E37
:10036000F324D96E000EF420DA6E1D50010D060E36
:10037000F326000EF422180EF324E16E000EF42092
:10038000E26EE750FF0ADF6E1D50010D180EF324D8
:10039000D96E000EF420DA6EDF5099EC03F01D5098
:1003A000010D060EF326000EF422180EF324D96E6A
:1003B000000EF420DA6EDF50D8A404D0000E0F6EC9
:1003C0002F0E03D0000E0F6E000E0E6E00D00E50DA
:1003D000A8EC03F054D01D50010D060EF326000EBC
:1003E000F422180EF324D96E000EF420DA6EDF50DA
:1003F000FF0A086E08468A500818FD0B3DD01D50B4
:10040000010D060EF326000EF422180EF324D96E09
:10041000000EF420DA6EDF50FF0A086E0832083250
:100420008A5008187F0B28D01D50010D060EF326A8
:10043000000EF422180EF324D96E000EF420DA6EAA
:10044000DF50FF0A086E083A084608468A50081826
:10045000BF0B12D01D50010D060EF326000EF42224
:10046000180EF324D96E000EF420DA6EDF50FF0A66
:10047000086E8A500818FE0B08188A6E0ED01D50A0
:10048000000AD8B4A8D7010AD8B4B9D7030AD8B497
:10049000CBD7010AD8B4DED700D080A002D0FDD7D8
:1004A00000D0F2A4A8D61D50010D180EF324D96E69
:1004B000000EF420DA6EDF5099EC03F0040E1D18E4
:1004C000D8A418D016501710D8B407D01E0E066E38
:1004D000010E076E6FEC03F037D0020EA8EC03F0AC
:1004E000030EA8EC03F0040EA8EC03F0050EA8EC34
:1004F00003F02AD01D50010D060EF326000EF42243
:10050000180EF324D96E000EF420DA6EDF50D8B442
:100510000AD016501710D8A402D0010E01D0000E38
:10052000A8EC03F011D016501710D8A404D0000E78
:10053000116E060E03D0000E116E2F0E106E00D03D
:100540001050A8EC03F000D016501710D8A402D019
:10055000010E01D0000E166E176AF2944CD6FFD72A
:100560001200040004001500110011000E0000002C
:100570001B001B000A000E000E0011001F000E00E1
:1005800004000A000A000E000E000E0000000F001A
:100590000F0001000F000F0000000E000E0006000B
:1005A0000A000C000E000E000E000E000E000E00E1
:1005B0000E000E0011001F001E001D001B00170082
:1005C0000F001F00000000000A000E0004000000E1
:1005D0000000D388D38AD38C130E926E000E896EDE
:1005E000C168000E936E000E8A6E8A828A808A8E9F
:1005F0008A8CD09E000ED66E000ED76E930ED56EEE
:10060000F2943C0EB6EC03F0060EB6EC03F00C0EC2
:10061000B6EC03F0010EB6EC03F0060E236E300EBE
:10062000E82EFED7232EFCD700D092EC00F001EF8D
:1006300000F0026E000E046E000E036E04BE08D0C1
:10064000045021E1080E035CD8B01DD001D01BD0AE
:1006500002A003D0016A012A01D0016A013A0146D1
:10066000014689500118BF0B0118896E00F08A8479
:1006700000F08A94D8900232034A042A04BEE8D7D4
:10068000045001E1DFD700F0898E00F0899E12004E
:10069000306A2F6A620EF66E050EF76E000EF86E67
:1006A00000EE80F010EE70F00900F5CFEEFFE5509F
:1006B000E150FAE1880EF66E070EF76E000EF86E46
:1006C00000EE24F010EE0BF00900F5CFEEFFE55040
:1006D000E150FAE1000EF86E0001E9EF02F00BD0F4
:1006E00006C0F6FF07C0F7FF0800F550A8EC03F0BE
:1006F000064A072A00D006C0F6FF07C0F7FF080029
:10070000F5500009D8A4ECD7120001500302F3CF32
:1007100005F0F4CF06F001500402F3500626025013
:100720000302F350062605C001F006C002F000D017
:100730001200056E8A988A9A0550800919EC03F018
:100740008A8600D08A96180EE82EFED700D01200B6
:10075000056E8A888A9A055019EC03F08A8600D0C3
:100760008A96180EE82EFED700D01200056E8A98E1
:100770008A9A055019EC03F08A8600D08A96180EE2
:10078000E82EFED700D0120004090F454C000000EF
:040790000000000065
:020000040020DA
:08000000FFFFFFFFFFFFFFFF00
:020000040030CA
:0E000000FF080C1EFF8081FF03C003E00340D9
:00000001FF
